{
  "_format": "hh-sol-artifact-1",
  "contractName": "ReviewSystem",
  "sourceName": "contracts/ReviewSystem.sol",
  "abi": [
    {
      "inputs": [
        {
          "internalType": "address",
          "name": "_registryAddress",
          "type": "address"
        },
        {
          "internalType": "address",
          "name": "_gigMarketplaceAddress",
          "type": "address"
        }
      ],
      "stateMutability": "nonpayable",
      "type": "constructor"
    },
    {
      "anonymous": false,
      "inputs": [
        {
          "indexed": true,
          "internalType": "address",
          "name": "reviewer",
          "type": "address"
        },
        {
          "indexed": true,
          "internalType": "address",
          "name": "reviewee",
          "type": "address"
        },
        {
          "indexed": true,
          "internalType": "bytes32",
          "name": "databaseId",
          "type": "bytes32"
        },
        {
          "indexed": false,
          "internalType": "uint256",
          "name": "rating",
          "type": "uint256"
        }
      ],
      "name": "ReviewSubmitted",
      "type": "event"
    },
    {
      "inputs": [
        {
          "internalType": "address",
          "name": "",
          "type": "address"
        },
        {
          "internalType": "uint256",
          "name": "",
          "type": "uint256"
        }
      ],
      "name": "artisanReviews",
      "outputs": [
        {
          "internalType": "address",
          "name": "reviewer",
          "type": "address"
        },
        {
          "internalType": "address",
          "name": "reviewee",
          "type": "address"
        },
        {
          "internalType": "bytes32",
          "name": "databaseId",
          "type": "bytes32"
        },
        {
          "internalType": "uint256",
          "name": "rating",
          "type": "uint256"
        },
        {
          "internalType": "string",
          "name": "commentHash",
          "type": "string"
        },
        {
          "internalType": "uint256",
          "name": "timestamp",
          "type": "uint256"
        }
      ],
      "stateMutability": "view",
      "type": "function"
    },
    {
      "inputs": [
        {
          "internalType": "address",
          "name": "_artisan",
          "type": "address"
        }
      ],
      "name": "getArtisanAverageRating",
      "outputs": [
        {
          "internalType": "uint256",
          "name": "",
          "type": "uint256"
        }
      ],
      "stateMutability": "view",
      "type": "function"
    },
    {
      "inputs": [
        {
          "internalType": "address",
          "name": "_artisan",
          "type": "address"
        }
      ],
      "name": "getArtisanReviewInfos",
      "outputs": [
        {
          "components": [
            {
              "internalType": "address",
              "name": "reviewer",
              "type": "address"
            },
            {
              "internalType": "address",
              "name": "reviewee",
              "type": "address"
            },
            {
              "internalType": "bytes32",
              "name": "databaseId",
              "type": "bytes32"
            },
            {
              "internalType": "uint256",
              "name": "rating",
              "type": "uint256"
            },
            {
              "internalType": "string",
              "name": "commentHash",
              "type": "string"
            },
            {
              "internalType": "uint256",
              "name": "timestamp",
              "type": "uint256"
            }
          ],
          "internalType": "struct ReviewSystem.ReviewInfo[]",
          "name": "",
          "type": "tuple[]"
        }
      ],
      "stateMutability": "view",
      "type": "function"
    },
    {
      "inputs": [
        {
          "internalType": "address",
          "name": "_artisan",
          "type": "address"
        }
      ],
      "name": "getArtisanReviews",
      "outputs": [
        {
          "internalType": "string[]",
          "name": "",
          "type": "string[]"
        }
      ],
      "stateMutability": "view",
      "type": "function"
    },
    {
      "inputs": [],
      "name": "gigMarketplace",
      "outputs": [
        {
          "internalType": "contract GigMarketplace",
          "name": "",
          "type": "address"
        }
      ],
      "stateMutability": "view",
      "type": "function"
    },
    {
      "inputs": [],
      "name": "registry",
      "outputs": [
        {
          "internalType": "contract Registry",
          "name": "",
          "type": "address"
        }
      ],
      "stateMutability": "view",
      "type": "function"
    },
    {
      "inputs": [
        {
          "internalType": "bytes32",
          "name": "_databaseId",
          "type": "bytes32"
        },
        {
          "internalType": "uint256",
          "name": "_rating",
          "type": "uint256"
        },
        {
          "internalType": "string",
          "name": "_commentHash",
          "type": "string"
        }
      ],
      "name": "submitReview",
      "outputs": [],
      "stateMutability": "nonpayable",
      "type": "function"
    }
  ],
  "bytecode": "0x608060405234801561001057600080fd5b5060405161108a38038061108a83398101604081905261002f9161007c565b600080546001600160a01b039384166001600160a01b031991821617909155600180549290931691161790556100af565b80516001600160a01b038116811461007757600080fd5b919050565b6000806040838503121561008f57600080fd5b61009883610060565b91506100a660208401610060565b90509250929050565b610fcc806100be6000396000f3fe608060405234801561001057600080fd5b506004361061007d5760003560e01c806395cd503a1161005b57806395cd503a146100f3578063a163a31614610106578063e876697d1461011b578063f0ed0afa1461013b57600080fd5b80636ffd5ef8146100825780637705e1a3146100a85780637b103999146100c8575b600080fd5b610095610090366004610a6b565b610160565b6040519081526020015b60405180910390f35b6100bb6100b6366004610a6b565b610310565b60405161009f9190610ad5565b6000546100db906001600160a01b031681565b6040516001600160a01b03909116815260200161009f565b6001546100db906001600160a01b031681565b610119610114366004610b4d565b610505565b005b61012e610129366004610a6b565b61081c565b60405161009f9190610c11565b61014e610149366004610cc1565b610965565b60405161009f96959493929190610ced565b6001600160a01b038116600090815260026020908152604080832080548251818502810185019093528083528493849084015b828210156102995760008481526020908190206040805160c0810182526006860290920180546001600160a01b03908116845260018201541693830193909352600283015490820152600382015460608201526004820180549192916080840191906101fe90610d3a565b80601f016020809104026020016040519081016040528092919081815260200182805461022a90610d3a565b80156102775780601f1061024c57610100808354040283529160200191610277565b820191906000526020600020905b81548152906001019060200180831161025a57829003601f168201915b5050505050815260200160058201548152505081526020019060010190610193565b50505050905080516000036102b15750600092915050565b6000805b82518110156102fb578281815181106102d0576102d0610d74565b602002602001015160600151826102e79190610da0565b9150806102f381610db9565b9150506102b5565b5081516103089082610dd2565b949350505050565b6001600160a01b0381166000908152600260209081526040808320805482518185028101850190935280835260609493849084015b8282101561044b5760008481526020908190206040805160c0810182526006860290920180546001600160a01b03908116845260018201541693830193909352600283015490820152600382015460608201526004820180549192916080840191906103b090610d3a565b80601f01602080910402602001604051908101604052809291908181526020018280546103dc90610d3a565b80156104295780601f106103fe57610100808354040283529160200191610429565b820191906000526020600020905b81548152906001019060200180831161040c57829003601f168201915b5050505050815260200160058201548152505081526020019060010190610345565b5050505090506000815167ffffffffffffffff81111561046d5761046d610b37565b6040519080825280602002602001820160405280156104a057816020015b606081526020019060019003908161048b5790505b50905060005b82518110156104fd578281815181106104c1576104c1610d74565b6020026020010151608001518282815181106104df576104df610d74565b602002602001018190525080806104f590610db9565b9150506104a6565b509392505050565b60018210158015610517575060058211155b6105685760405162461bcd60e51b815260206004820152601e60248201527f526174696e67206d757374206265206265747765656e203120616e642035000060448201526064015b60405180910390fd5b6001546040516353f2f5f760e01b8152600481018590526000918291829182916001600160a01b03909116906353f2f5f79060240160e060405180830381865afa1580156105ba573d6000803e3d6000fd5b505050506040513d601f19601f820116820180604052508101906105de9190610e09565b9650965050505093509350836001600160a01b0316336001600160a01b0316146106565760405162461bcd60e51b815260206004820152602360248201527f4f6e6c792074686520636c69656e742063616e207375626d697420612072657660448201526269657760e81b606482015260840161055f565b816106bc5760405162461bcd60e51b815260206004820152603060248201527f476967206d75737420626520636f6d706c65746564206265666f72652073756260448201526f6d697474696e6720612072657669657760801b606482015260840161055f565b801561070a5760405162461bcd60e51b815260206004820152601a60248201527f43616e6e6f7420726576696577206120636c6f73656420676967000000000000604482015260640161055f565b6040805160c0810182523381526001600160a01b0385811660208084018281528486018d8152606086018d8152608087018d81524260a08901526000958652600280865298862080546001818101835591885295909620885160069096020180549588166001600160a01b03199687161781559351958401805496909716959094169490941790945592519483019490945551600382015591519091829160048201906107b79082610ed6565b5060a08201518160050155505087846001600160a01b0316336001600160a01b03167ff1eefca1c21a8b59e4516f3bba67a6220a8b1fcdff5022a1ba344c5cd31ae4368a60405161080a91815260200190565b60405180910390a45050505050505050565b6001600160a01b0381166000908152600260209081526040808320805482518185028101850190935280835260609492939192909184015b8282101561095a5760008481526020908190206040805160c0810182526006860290920180546001600160a01b03908116845260018201541693830193909352600283015490820152600382015460608201526004820180549192916080840191906108bf90610d3a565b80601f01602080910402602001604051908101604052809291908181526020018280546108eb90610d3a565b80156109385780601f1061090d57610100808354040283529160200191610938565b820191906000526020600020905b81548152906001019060200180831161091b57829003601f168201915b5050505050815260200160058201548152505081526020019060010190610854565b505050509050919050565b6002602052816000526040600020818154811061098157600080fd5b6000918252602090912060069091020180546001820154600283015460038401546004850180546001600160a01b0395861698509390941695509093909290916109ca90610d3a565b80601f01602080910402602001604051908101604052809291908181526020018280546109f690610d3a565b8015610a435780601f10610a1857610100808354040283529160200191610a43565b820191906000526020600020905b815481529060010190602001808311610a2657829003601f168201915b5050505050908060050154905086565b6001600160a01b0381168114610a6857600080fd5b50565b600060208284031215610a7d57600080fd5b8135610a8881610a53565b9392505050565b6000815180845260005b81811015610ab557602081850181015186830182015201610a99565b506000602082860101526020601f19601f83011685010191505092915050565b6000602080830181845280855180835260408601915060408160051b870101925083870160005b82811015610b2a57603f19888603018452610b18858351610a8f565b94509285019290850190600101610afc565b5092979650505050505050565b634e487b7160e01b600052604160045260246000fd5b600080600060608486031215610b6257600080fd5b8335925060208401359150604084013567ffffffffffffffff80821115610b8857600080fd5b818601915086601f830112610b9c57600080fd5b813581811115610bae57610bae610b37565b604051601f8201601f19908116603f01168101908382118183101715610bd657610bd6610b37565b81604052828152896020848701011115610bef57600080fd5b8260208601602083013760006020848301015280955050505050509250925092565b60006020808301818452808551808352604092508286019150828160051b87010184880160005b83811015610cb357888303603f19018552815180516001600160a01b03908116855288820151168885015286810151878501526060808201519085015260808082015160c08287018190529190610c9183880182610a8f565b60a0948501519790940196909652505094870194925090860190600101610c38565b509098975050505050505050565b60008060408385031215610cd457600080fd5b8235610cdf81610a53565b946020939093013593505050565b6001600160a01b03878116825286166020820152604081018590526060810184905260c060808201819052600090610d2790830185610a8f565b90508260a0830152979650505050505050565b600181811c90821680610d4e57607f821691505b602082108103610d6e57634e487b7160e01b600052602260045260246000fd5b50919050565b634e487b7160e01b600052603260045260246000fd5b634e487b7160e01b600052601160045260246000fd5b80820180821115610db357610db3610d8a565b92915050565b600060018201610dcb57610dcb610d8a565b5060010190565b600082610def57634e487b7160e01b600052601260045260246000fd5b500490565b80518015158114610e0457600080fd5b919050565b600080600080600080600060e0888a031215610e2457600080fd5b8751610e2f81610a53565b6020890151909750610e4081610a53565b604089015160608a015191975095509350610e5d60808901610df4565b9250610e6b60a08901610df4565b9150610e7960c08901610df4565b905092959891949750929550565b601f821115610ed157600081815260208120601f850160051c81016020861015610eae5750805b601f850160051c820191505b81811015610ecd57828155600101610eba565b5050505b505050565b815167ffffffffffffffff811115610ef057610ef0610b37565b610f0481610efe8454610d3a565b84610e87565b602080601f831160018114610f395760008415610f215750858301515b600019600386901b1c1916600185901b178555610ecd565b600085815260208120601f198616915b82811015610f6857888601518255948401946001909101908401610f49565b5085821015610f865787850151600019600388901b60f8161c191681555b5050505050600190811b0190555056fea26469706673582212202c07b91ea43e6e9745ee908ba8265a2c33db603b5db6907a13ae0a945c1769cf64736f6c63430008140033",
  "linkReferences": {},
  "deployedLinkReferences": {}
}