{
  "_format": "hh-sol-artifact-1",
  "contractName": "GigMarketplace",
  "sourceName": "contracts/GigMarketplace.sol",
  "abi": [
    {
      "inputs": [
        {
          "internalType": "address",
          "name": "_registry",
          "type": "address"
        },
        {
          "internalType": "address",
          "name": "_paymentProcessor",
          "type": "address"
        }
      ],
      "stateMutability": "nonpayable",
      "type": "constructor"
    },
    {
      "anonymous": false,
      "inputs": [
        {
          "indexed": true,
          "internalType": "uint256",
          "name": "gigId",
          "type": "uint256"
        },
        {
          "indexed": true,
          "internalType": "address",
          "name": "artisan",
          "type": "address"
        }
      ],
      "name": "ArtisanHired",
      "type": "event"
    },
    {
      "anonymous": false,
      "inputs": [
        {
          "indexed": true,
          "internalType": "uint256",
          "name": "gigId",
          "type": "uint256"
        }
      ],
      "name": "ArtisanMarkCompleted",
      "type": "event"
    },
    {
      "anonymous": false,
      "inputs": [
        {
          "indexed": true,
          "internalType": "uint256",
          "name": "gigId",
          "type": "uint256"
        }
      ],
      "name": "ClientConfirmCompleted",
      "type": "event"
    },
    {
      "anonymous": false,
      "inputs": [
        {
          "indexed": true,
          "internalType": "uint256",
          "name": "gigId",
          "type": "uint256"
        },
        {
          "indexed": true,
          "internalType": "address",
          "name": "artisan",
          "type": "address"
        }
      ],
      "name": "GigApplicationSubmitted",
      "type": "event"
    },
    {
      "anonymous": false,
      "inputs": [
        {
          "indexed": true,
          "internalType": "uint256",
          "name": "gigId",
          "type": "uint256"
        }
      ],
      "name": "GigClosed",
      "type": "event"
    },
    {
      "anonymous": false,
      "inputs": [
        {
          "indexed": true,
          "internalType": "uint256",
          "name": "gigId",
          "type": "uint256"
        },
        {
          "indexed": true,
          "internalType": "address",
          "name": "client",
          "type": "address"
        },
        {
          "indexed": false,
          "internalType": "bytes32",
          "name": "rootHash",
          "type": "bytes32"
        }
      ],
      "name": "GigCreated",
      "type": "event"
    },
    {
      "anonymous": false,
      "inputs": [
        {
          "indexed": true,
          "internalType": "uint256",
          "name": "gigId",
          "type": "uint256"
        },
        {
          "indexed": false,
          "internalType": "bytes32",
          "name": "newRootHash",
          "type": "bytes32"
        }
      ],
      "name": "GigStateUpdated",
      "type": "event"
    },
    {
      "inputs": [
        {
          "internalType": "bytes32",
          "name": "_databaseId",
          "type": "bytes32"
        }
      ],
      "name": "applyForGig",
      "outputs": [],
      "stateMutability": "nonpayable",
      "type": "function"
    },
    {
      "inputs": [
        {
          "internalType": "bytes32",
          "name": "_databaseId",
          "type": "bytes32"
        }
      ],
      "name": "closeGig",
      "outputs": [],
      "stateMutability": "nonpayable",
      "type": "function"
    },
    {
      "inputs": [
        {
          "internalType": "bytes32",
          "name": "_databaseId",
          "type": "bytes32"
        }
      ],
      "name": "confirmComplete",
      "outputs": [],
      "stateMutability": "nonpayable",
      "type": "function"
    },
    {
      "inputs": [
        {
          "internalType": "bytes32",
          "name": "_rootHash",
          "type": "bytes32"
        },
        {
          "internalType": "bytes32",
          "name": "_databaseId",
          "type": "bytes32"
        },
        {
          "internalType": "uint256",
          "name": "_budget",
          "type": "uint256"
        }
      ],
      "name": "createGig",
      "outputs": [],
      "stateMutability": "nonpayable",
      "type": "function"
    },
    {
      "inputs": [
        {
          "internalType": "bytes32",
          "name": "_databaseId",
          "type": "bytes32"
        }
      ],
      "name": "getGigApplicants",
      "outputs": [
        {
          "internalType": "address[]",
          "name": "",
          "type": "address[]"
        }
      ],
      "stateMutability": "view",
      "type": "function"
    },
    {
      "inputs": [
        {
          "internalType": "bytes32",
          "name": "_databaseId",
          "type": "bytes32"
        }
      ],
      "name": "getGigInfo",
      "outputs": [
        {
          "internalType": "address",
          "name": "client",
          "type": "address"
        },
        {
          "internalType": "address",
          "name": "hiredArtisan",
          "type": "address"
        },
        {
          "internalType": "uint256",
          "name": "paymentId",
          "type": "uint256"
        },
        {
          "internalType": "bytes32",
          "name": "rootHash",
          "type": "bytes32"
        },
        {
          "internalType": "bool",
          "name": "artisanComplete",
          "type": "bool"
        },
        {
          "internalType": "bool",
          "name": "isCompleted",
          "type": "bool"
        },
        {
          "internalType": "bool",
          "name": "isClosed",
          "type": "bool"
        }
      ],
      "stateMutability": "view",
      "type": "function"
    },
    {
      "inputs": [],
      "name": "getLatestRootHash",
      "outputs": [
        {
          "internalType": "bytes32",
          "name": "",
          "type": "bytes32"
        }
      ],
      "stateMutability": "view",
      "type": "function"
    },
    {
      "inputs": [],
      "name": "gigCounter",
      "outputs": [
        {
          "internalType": "uint256",
          "name": "",
          "type": "uint256"
        }
      ],
      "stateMutability": "view",
      "type": "function"
    },
    {
      "inputs": [
        {
          "internalType": "uint256",
          "name": "",
          "type": "uint256"
        }
      ],
      "name": "gigs",
      "outputs": [
        {
          "internalType": "address",
          "name": "client",
          "type": "address"
        },
        {
          "internalType": "address",
          "name": "hiredArtisan",
          "type": "address"
        },
        {
          "internalType": "uint256",
          "name": "paymentId",
          "type": "uint256"
        },
        {
          "internalType": "bytes32",
          "name": "databaseId",
          "type": "bytes32"
        },
        {
          "internalType": "bytes32",
          "name": "rootHash",
          "type": "bytes32"
        },
        {
          "internalType": "bool",
          "name": "artisanComplete",
          "type": "bool"
        },
        {
          "internalType": "bool",
          "name": "isCompleted",
          "type": "bool"
        },
        {
          "internalType": "bool",
          "name": "isClosed",
          "type": "bool"
        }
      ],
      "stateMutability": "view",
      "type": "function"
    },
    {
      "inputs": [
        {
          "internalType": "bytes32",
          "name": "_databaseId",
          "type": "bytes32"
        },
        {
          "internalType": "address",
          "name": "_artisan",
          "type": "address"
        }
      ],
      "name": "hireArtisan",
      "outputs": [],
      "stateMutability": "nonpayable",
      "type": "function"
    },
    {
      "inputs": [
        {
          "internalType": "bytes32",
          "name": "",
          "type": "bytes32"
        }
      ],
      "name": "indexes",
      "outputs": [
        {
          "internalType": "uint256",
          "name": "",
          "type": "uint256"
        }
      ],
      "stateMutability": "view",
      "type": "function"
    },
    {
      "inputs": [
        {
          "internalType": "bytes32",
          "name": "_databaseId",
          "type": "bytes32"
        }
      ],
      "name": "markComplete",
      "outputs": [],
      "stateMutability": "nonpayable",
      "type": "function"
    },
    {
      "inputs": [],
      "name": "paymentProcessor",
      "outputs": [
        {
          "internalType": "contract PaymentProcessor",
          "name": "",
          "type": "address"
        }
      ],
      "stateMutability": "view",
      "type": "function"
    },
    {
      "inputs": [],
      "name": "registry",
      "outputs": [
        {
          "internalType": "contract Registry",
          "name": "",
          "type": "address"
        }
      ],
      "stateMutability": "view",
      "type": "function"
    },
    {
      "inputs": [
        {
          "internalType": "bytes32",
          "name": "_databaseId",
          "type": "bytes32"
        },
        {
          "internalType": "bytes32",
          "name": "_newRootHash",
          "type": "bytes32"
        }
      ],
      "name": "updateGigInfo",
      "outputs": [],
      "stateMutability": "nonpayable",
      "type": "function"
    }
  ],
  "bytecode": "0x608060405234801561001057600080fd5b5060405161153638038061153683398101604081905261002f9161007c565b600080546001600160a01b039384166001600160a01b031991821617909155600180549290931691161790556100af565b80516001600160a01b038116811461007757600080fd5b919050565b6000806040838503121561008f57600080fd5b61009883610060565b91506100a660208401610060565b90509250929050565b611478806100be6000396000f3fe608060405234801561001057600080fd5b50600436106100f55760003560e01c80637b10399911610097578063c8b9fb7611610066578063c8b9fb76146102e9578063d9a5013614610309578063df16e38b1461031c578063f1c6bdf81461032f57600080fd5b80637b1039991461028f578063ab519822146102ba578063b20925cc146102cd578063c1403fd9146102e057600080fd5b806324aa506d116100d357806324aa506d1461014b578063346a37d21461016f57806353f2f5f7146101825780635e3fbdc8146101db57600080fd5b806305cb876a146100fa5780631210beca1461010f57806315db79bf14610122575b600080fd5b61010d61010836600461124d565b610342565b005b61010d61011d366004611279565b61065e565b61013561013036600461129b565b610746565b60405161014291906112b4565b60405180910390f35b6004546000908152600260205260409020600501545b604051908152602001610142565b61010d61017d36600461129b565b6107f0565b61019561019036600461129b565b610964565b604080516001600160a01b03988916815297909616602088015294860193909352606085019190915215156080840152151560a0830152151560c082015260e001610142565b6102436101e936600461129b565b60026020819052600091825260409091208054918101546003820154600483015460058401546006909401546001600160a01b039586169590931693919290919060ff808216916101008104821691620100009091041688565b604080516001600160a01b03998a1681529890971660208901529587019490945260608601929092526080850152151560a0840152151560c0830152151560e082015261010001610142565b6000546102a2906001600160a01b031681565b6040516001600160a01b039091168152602001610142565b61010d6102c8366004611301565b6109fe565b61010d6102db36600461129b565b610b9e565b61016160045481565b6101616102f736600461129b565b60036020526000908152604090205481565b61010d61031736600461129b565b610d7e565b61010d61032a36600461129b565b610f18565b6001546102a2906001600160a01b031681565b6000546040516321f349cf60e21b81523360048201526002916001600160a01b0316906387cd273c90602401602060405180830381865afa15801561038b573d6000803e3d6000fd5b505050506040513d601f19601f820116820180604052508101906103af9190611353565b60028111156103c0576103c061133d565b146104015760405162461bcd60e51b815260206004820152600c60248201526b139bdd08184818db1a595b9d60a21b60448201526064015b60405180910390fd5b600480549060006104118361137b565b90915550506001546040516301a99a7f60e21b8152336004820152602481018390526001600160a01b03909116906306a669fc90604401600060405180830381600087803b15801561046257600080fd5b505af1158015610476573d6000803e3d6000fd5b50506040805161012081018252338152815160008082526020808301855280840192909252828401526001548351634880171760e11b815293519295506060860194506001600160a01b0316926391002e2e92600480830193928290030181865afa1580156104e9573d6000803e3d6000fd5b505050506040513d601f19601f8201168201806040525081019061050d91906113a2565b8152602080820185905260408083018790526000606084018190526080840181905260a0909301839052600454835260028252909120825181546001600160a01b0319166001600160a01b039091161781558282015180519192610579926001850192909101906111d3565b506040828101516002830180546001600160a01b0319166001600160a01b039092169190911790556060830151600380840191909155608084015160048085019190915560a0850151600585015560c08501516006909401805460e08701516101009788015161ffff1990921696151561ff001916969096179515159096029490941762ff0000191662010000951515959095029490941790925591546000858152602092835283902081905591518581523392917f13d4aef66c3ac9a624b5206c8c0566fa03c1af27a4d5cf459065be492292fade910160405180910390a3505050565b600082815260036020908152604080832054808452600290925290912080546001600160a01b031633146106a45760405162461bcd60e51b81526004016103f8906113bb565b6006810154610100900460ff161580156106c95750600681015462010000900460ff16155b6107045760405162461bcd60e51b815260206004820152600c60248201526b11da59c8199a5b9a5cda195960a21b60448201526064016103f8565b6005810183905560405183815282907ff2fa49d923ab489561f1730951b201fc6b3f28a76e933632486659cdc98a93439060200160405180910390a250505050565b6000818152600360209081526040808320548084526002909252909120600454606092919082111561078a5760405162461bcd60e51b81526004016103f8906113e2565b806001018054806020026020016040519081016040528092919081815260200182805480156107e257602002820191906000526020600020905b81546001600160a01b031681526001909101906020018083116107c4575b505050505092505050919050565b600081815260036020908152604080832054808452600290925290912060045482111561082f5760405162461bcd60e51b81526004016103f8906113e2565b60028101546001600160a01b0316331461087f5760405162461bcd60e51b81526020600482015260116024820152702737ba103434b932b21030b93a34b9b0b760791b60448201526064016103f8565b6006810154610100900460ff161580156108a45750600681015462010000900460ff16155b6108df5760405162461bcd60e51b815260206004820152600c60248201526b11da59c8199a5b9a5cda195960a21b60448201526064016103f8565b600681015460ff16156109255760405162461bcd60e51b815260206004820152600e60248201526d105b1c9958591e481b585c9ad95960921b60448201526064016103f8565b60068101805460ff1916600117905560405182907f4e5bb339aad8d5ed85eb48d049ef57d9fd793dac36e90aacf3eb1f1347ebdef990600090a2505050565b600081815260036020908152604080832054808452600290925282206004548392839283928392839283928211156109ae5760405162461bcd60e51b81526004016103f8906113e2565b80546002820154600383015460058401546006909401546001600160a01b039384169e939092169c509a5091985060ff808316985061010083048116975062010000909204909116945092505050565b6000828152600360209081526040808320548084526002909252909120600454821115610a3d5760405162461bcd60e51b81526004016103f8906113e2565b80546001600160a01b03163314610a665760405162461bcd60e51b81526004016103f8906113bb565b60028101546001600160a01b031615610ab95760405162461bcd60e51b8152602060048201526015602482015274105c9d1a5cd85b88185b1c9958591e481a1a5c9959605a1b60448201526064016103f8565b600681015462010000900460ff1615610b045760405162461bcd60e51b815260206004820152600d60248201526c11da59c81a5cc818db1bdcd959609a1b60448201526064016103f8565b610b0e82846110fd565b610b4d5760405162461bcd60e51b815260206004820152601060248201526f139bdd08185b88185c1c1b1a58d85b9d60821b60448201526064016103f8565b6002810180546001600160a01b0319166001600160a01b03851690811790915560405183907f1f5eba1a7874f2880cc53bc85badbad03a058faefb896720218e53ae856200ed90600090a350505050565b6000818152600360209081526040808320548084526002909252909120600454821115610bdd5760405162461bcd60e51b81526004016103f8906113e2565b80546001600160a01b03163314610c065760405162461bcd60e51b81526004016103f8906113bb565b60028101546001600160a01b031615610c615760405162461bcd60e51b815260206004820152601760248201527f43616e6e6f7420636c6f7365206163746976652067696700000000000000000060448201526064016103f8565b6006810154610100900460ff16158015610c865750600681015462010000900460ff16155b610cd25760405162461bcd60e51b815260206004820152601f60248201527f47696720616c726561647920436f6d706c65746564207c7c20436c6f7365640060448201526064016103f8565b60068101805462ff0000191662010000179055600154600382015460405163f5a0e6e560e01b81526001600160a01b039092169163f5a0e6e591610d1c9160040190815260200190565b600060405180830381600087803b158015610d3657600080fd5b505af1158015610d4a573d6000803e3d6000fd5b50506040518492507f6a34f757db53840b0f38172462a6e7a4cc230127f9f6666aff64d797c35d7da59150600090a2505050565b6000818152600360209081526040808320548084526002909252909120600454821115610dbd5760405162461bcd60e51b81526004016103f8906113e2565b80546001600160a01b03163314610de65760405162461bcd60e51b81526004016103f8906113bb565b600681015460ff168015610e0457506006810154610100900460ff16155b8015610e1b5750600681015462010000900460ff16155b610e675760405162461bcd60e51b815260206004820152601b60248201527f476967206e6f7420636f6d706c65746564207c7c20436c6f736564000000000060448201526064016103f8565b60068101805461ff00191661010017905560015460028201546003830154604051631aaf845d60e01b81526001600160a01b0392831660048201526024810191909152911690631aaf845d90604401600060405180830381600087803b158015610ed057600080fd5b505af1158015610ee4573d6000803e3d6000fd5b50506040518492507f0fd04a81b275fa056b6009519dbb2ddf9ba632606ef05f46df92bd4e5d6d6ce69150600090a2505050565b6000818152600360209081526040808320548084526002909252909120600454821115610f575760405162461bcd60e51b81526004016103f8906113e2565b60005460405163070ef70f60e01b81523360048201526001600160a01b039091169063070ef70f90602401602060405180830381865afa158015610f9f573d6000803e3d6000fd5b505050506040513d601f19601f82011682018060405250810190610fc3919061140a565b6110045760405162461bcd60e51b81526020600482015260126024820152712ab73b32b934b334b2b21030b93a34b9b0b760711b60448201526064016103f8565b600681015462010000900460ff161561104f5760405162461bcd60e51b815260206004820152600d60248201526c11da59c81a5cc818db1bdcd959609a1b60448201526064016103f8565b60028101546001600160a01b0316156110a25760405162461bcd60e51b8152602060048201526015602482015274105c9d1a5cd85b88185b1c9958591e481a1a5c9959605a1b60448201526064016103f8565b60018082018054918201815560009081526020812090910180546001600160a01b03191633908117909155604051909184917f7d850105f485b052b3f8c2b3f2b38adadbe684fbfb4621ae7ba0f537ca9d18d59190a3505050565b600082815260026020908152604080832060018101805483518186028101860190945280845291938593929083018282801561116257602002820191906000526020600020905b81546001600160a01b03168152600190910190602001808311611144575b5050505050905060005b81518110156111c557846001600160a01b03168282815181106111915761119161142c565b60200260200101516001600160a01b0316036111b357600193505050506111cd565b806111bd8161137b565b91505061116c565b506000925050505b92915050565b828054828255906000526020600020908101928215611228579160200282015b8281111561122857825182546001600160a01b0319166001600160a01b039091161782556020909201916001909101906111f3565b50611234929150611238565b5090565b5b808211156112345760008155600101611239565b60008060006060848603121561126257600080fd5b505081359360208301359350604090920135919050565b6000806040838503121561128c57600080fd5b50508035926020909101359150565b6000602082840312156112ad57600080fd5b5035919050565b6020808252825182820181905260009190848201906040850190845b818110156112f55783516001600160a01b0316835292840192918401916001016112d0565b50909695505050505050565b6000806040838503121561131457600080fd5b8235915060208301356001600160a01b038116811461133257600080fd5b809150509250929050565b634e487b7160e01b600052602160045260246000fd5b60006020828403121561136557600080fd5b81516003811061137457600080fd5b9392505050565b60006001820161139b57634e487b7160e01b600052601160045260246000fd5b5060010190565b6000602082840312156113b457600080fd5b5051919050565b6020808252600d908201526c2737ba1033b4b39037bbb732b960991b604082015260600190565b6020808252600e908201526d125b9d985b1a590819da59c8125160921b604082015260600190565b60006020828403121561141c57600080fd5b8151801515811461137457600080fd5b634e487b7160e01b600052603260045260246000fdfea2646970667358221220f5d207303accb286969fd06ee9a35d0c5bd26b1756a3fa0d2d22ac2ec54b7b2d64736f6c63430008140033",
  "linkReferences": {},
  "deployedLinkReferences": {}
}