{
  "_format": "hh-sol-artifact-1",
  "contractName": "Registry",
  "sourceName": "contracts/Registry.sol",
  "abi": [
    {
      "anonymous": false,
      "inputs": [
        {
          "indexed": true,
          "internalType": "address",
          "name": "artisanAddress",
          "type": "address"
        },
        {
          "indexed": false,
          "internalType": "string",
          "name": "ipfsHash",
          "type": "string"
        }
      ],
      "name": "ArtisanRegistered",
      "type": "event"
    },
    {
      "anonymous": false,
      "inputs": [
        {
          "indexed": true,
          "internalType": "address",
          "name": "artisanAddress",
          "type": "address"
        }
      ],
      "name": "ArtisanVerified",
      "type": "event"
    },
    {
      "anonymous": false,
      "inputs": [
        {
          "indexed": true,
          "internalType": "address",
          "name": "clientAddress",
          "type": "address"
        },
        {
          "indexed": false,
          "internalType": "string",
          "name": "ipfsHash",
          "type": "string"
        }
      ],
      "name": "ClientRegistered",
      "type": "event"
    },
    {
      "inputs": [
        {
          "internalType": "uint256",
          "name": "",
          "type": "uint256"
        }
      ],
      "name": "artisanAddresses",
      "outputs": [
        {
          "internalType": "address",
          "name": "",
          "type": "address"
        }
      ],
      "stateMutability": "view",
      "type": "function"
    },
    {
      "inputs": [
        {
          "internalType": "address",
          "name": "",
          "type": "address"
        }
      ],
      "name": "artisans",
      "outputs": [
        {
          "internalType": "string",
          "name": "ipfsHash",
          "type": "string"
        },
        {
          "internalType": "bool",
          "name": "isVerified",
          "type": "bool"
        },
        {
          "internalType": "uint256",
          "name": "registrationDate",
          "type": "uint256"
        }
      ],
      "stateMutability": "view",
      "type": "function"
    },
    {
      "inputs": [
        {
          "internalType": "uint256",
          "name": "",
          "type": "uint256"
        }
      ],
      "name": "clientAddresses",
      "outputs": [
        {
          "internalType": "address",
          "name": "",
          "type": "address"
        }
      ],
      "stateMutability": "view",
      "type": "function"
    },
    {
      "inputs": [
        {
          "internalType": "address",
          "name": "",
          "type": "address"
        }
      ],
      "name": "clients",
      "outputs": [
        {
          "internalType": "string",
          "name": "ipfsHash",
          "type": "string"
        },
        {
          "internalType": "uint256",
          "name": "registrationDate",
          "type": "uint256"
        }
      ],
      "stateMutability": "view",
      "type": "function"
    },
    {
      "inputs": [],
      "name": "getArtisanCount",
      "outputs": [
        {
          "internalType": "uint256",
          "name": "",
          "type": "uint256"
        }
      ],
      "stateMutability": "view",
      "type": "function"
    },
    {
      "inputs": [
        {
          "internalType": "address",
          "name": "_artisanAddress",
          "type": "address"
        }
      ],
      "name": "getArtisanDetails",
      "outputs": [
        {
          "internalType": "string",
          "name": "ipfsHash",
          "type": "string"
        },
        {
          "internalType": "bool",
          "name": "isVerified",
          "type": "bool"
        },
        {
          "internalType": "uint256",
          "name": "registrationDate",
          "type": "uint256"
        }
      ],
      "stateMutability": "view",
      "type": "function"
    },
    {
      "inputs": [],
      "name": "getClientCount",
      "outputs": [
        {
          "internalType": "uint256",
          "name": "",
          "type": "uint256"
        }
      ],
      "stateMutability": "view",
      "type": "function"
    },
    {
      "inputs": [
        {
          "internalType": "address",
          "name": "_clientAddress",
          "type": "address"
        }
      ],
      "name": "getClientDetails",
      "outputs": [
        {
          "internalType": "string",
          "name": "ipfsHash",
          "type": "string"
        },
        {
          "internalType": "uint256",
          "name": "registrationDate",
          "type": "uint256"
        }
      ],
      "stateMutability": "view",
      "type": "function"
    },
    {
      "inputs": [
        {
          "internalType": "address",
          "name": "_artisanAddress",
          "type": "address"
        }
      ],
      "name": "isArtisan",
      "outputs": [
        {
          "internalType": "bool",
          "name": "",
          "type": "bool"
        }
      ],
      "stateMutability": "view",
      "type": "function"
    },
    {
      "inputs": [
        {
          "internalType": "address",
          "name": "_artisanAddress",
          "type": "address"
        }
      ],
      "name": "isArtisanVerified",
      "outputs": [
        {
          "internalType": "bool",
          "name": "",
          "type": "bool"
        }
      ],
      "stateMutability": "view",
      "type": "function"
    },
    {
      "inputs": [
        {
          "internalType": "address",
          "name": "_clientAddress",
          "type": "address"
        }
      ],
      "name": "isClient",
      "outputs": [
        {
          "internalType": "bool",
          "name": "",
          "type": "bool"
        }
      ],
      "stateMutability": "view",
      "type": "function"
    },
    {
      "inputs": [
        {
          "internalType": "string",
          "name": "_ipfsHash",
          "type": "string"
        }
      ],
      "name": "registerAsArtisan",
      "outputs": [],
      "stateMutability": "nonpayable",
      "type": "function"
    },
    {
      "inputs": [
        {
          "internalType": "string",
          "name": "_ipfsHash",
          "type": "string"
        }
      ],
      "name": "registerAsClient",
      "outputs": [],
      "stateMutability": "nonpayable",
      "type": "function"
    },
    {
      "inputs": [
        {
          "internalType": "address",
          "name": "",
          "type": "address"
        }
      ],
      "name": "userTypes",
      "outputs": [
        {
          "internalType": "enum Registry.UserType",
          "name": "",
          "type": "uint8"
        }
      ],
      "stateMutability": "view",
      "type": "function"
    }
  ],
  "bytecode": "0x608060405234801561001057600080fd5b50611bc5806100206000396000f3fe608060405234801561001057600080fd5b50600436106100ea5760003560e01c806387cd273c1161008c578063b98389b111610066578063b98389b1146102ad578063cf259d60146102c9578063d3e583d9146102fb578063f1987e1114610319576100ea565b806387cd273c1461021c5780638bf3bbed1461024c5780639b6ea4db1461027d576100ea565b80632494bbb5116100c85780632494bbb5146101815780635a81018a1461019d57806361eed2a9146101bb57806384b7964f146101ec576100ea565b8063070ef70f146100ef57806307c330261461011f5780631d601a211461014f575b600080fd5b6101096004803603810190610104919061124b565b610349565b6040516101169190611293565b60405180910390f35b6101396004803603810190610134919061124b565b610454565b6040516101469190611293565b60405180910390f35b6101696004803603810190610164919061124b565b6104d1565b60405161017893929190611357565b60405180910390f35b61019b600480360381019061019691906114ca565b610680565b005b6101a56108f7565b6040516101b29190611513565b60405180910390f35b6101d560048036038101906101d0919061124b565b610904565b6040516101e392919061152e565b60405180910390f35b6102066004803603810190610201919061124b565b6109b0565b6040516102139190611293565b60405180910390f35b6102366004803603810190610231919061124b565b610a2c565b60405161024391906115d5565b60405180910390f35b6102666004803603810190610261919061124b565b610a4c565b60405161027492919061152e565b60405180910390f35b6102976004803603810190610292919061161c565b610be4565b6040516102a49190611658565b60405180910390f35b6102c760048036038101906102c291906114ca565b610c23565b005b6102e360048036038101906102de919061124b565b610e68565b6040516102f293929190611357565b60405180910390f35b610303610f27565b6040516103109190611513565b60405180910390f35b610333600480360381019061032e919061161c565b610f34565b6040516103409190611658565b60405180910390f35b60006001600281111561035f5761035e61155e565b5b600260008473ffffffffffffffffffffffffffffffffffffffff1673ffffffffffffffffffffffffffffffffffffffff16815260200190815260200160002060009054906101000a900460ff1660028111156103be576103bd61155e565b5b146103fe576040517f08c379a00000000000000000000000000000000000000000000000000000000081526004016103f5906116bf565b60405180910390fd5b6000808373ffffffffffffffffffffffffffffffffffffffff1673ffffffffffffffffffffffffffffffffffffffff16815260200190815260200160002060010160009054906101000a900460ff169050919050565b60006001600281111561046a5761046961155e565b5b600260008473ffffffffffffffffffffffffffffffffffffffff1673ffffffffffffffffffffffffffffffffffffffff16815260200190815260200160002060009054906101000a900460ff1660028111156104c9576104c861155e565b5b149050919050565b6060600080600160028111156104ea576104e961155e565b5b600260008673ffffffffffffffffffffffffffffffffffffffff1673ffffffffffffffffffffffffffffffffffffffff16815260200190815260200160002060009054906101000a900460ff1660028111156105495761054861155e565b5b14610589576040517f08c379a0000000000000000000000000000000000000000000000000000000008152600401610580906116bf565b60405180910390fd5b60008060008673ffffffffffffffffffffffffffffffffffffffff1673ffffffffffffffffffffffffffffffffffffffff1681526020019081526020016000209050806000018160010160009054906101000a900460ff1682600201548280546105f29061170e565b80601f016020809104026020016040519081016040528092919081815260200182805461061e9061170e565b801561066b5780601f106106405761010080835404028352916020019161066b565b820191906000526020600020905b81548152906001019060200180831161064e57829003601f168201915b50505050509250935093509350509193909250565b600060028111156106945761069361155e565b5b600260003373ffffffffffffffffffffffffffffffffffffffff1673ffffffffffffffffffffffffffffffffffffffff16815260200190815260200160002060009054906101000a900460ff1660028111156106f3576106f261155e565b5b14610733576040517f08c379a000000000000000000000000000000000000000000000000000000000815260040161072a9061178b565b60405180910390fd5b6040518060600160405280828152602001600015158152602001428152506000803373ffffffffffffffffffffffffffffffffffffffff1673ffffffffffffffffffffffffffffffffffffffff16815260200190815260200160002060008201518160000190816107a49190611957565b5060208201518160010160006101000a81548160ff021916908315150217905550604082015181600201559050506001600260003373ffffffffffffffffffffffffffffffffffffffff1673ffffffffffffffffffffffffffffffffffffffff16815260200190815260200160002060006101000a81548160ff021916908360028111156108355761083461155e565b5b02179055506003339080600181540180825580915050600190039060005260206000200160009091909190916101000a81548173ffffffffffffffffffffffffffffffffffffffff021916908373ffffffffffffffffffffffffffffffffffffffff1602179055506108a633610f73565b3373ffffffffffffffffffffffffffffffffffffffff167fcbdaa7c4fc307de372ed1c536f4901f771ac7e14fe243d6fbd7b4826a439f74c826040516108ec9190611a29565b60405180910390a250565b6000600480549050905090565b60016020528060005260406000206000915090508060000180546109279061170e565b80601f01602080910402602001604051908101604052809291908181526020018280546109539061170e565b80156109a05780601f10610975576101008083540402835291602001916109a0565b820191906000526020600020905b81548152906001019060200180831161098357829003601f168201915b5050505050908060010154905082565b60006002808111156109c5576109c461155e565b5b600260008473ffffffffffffffffffffffffffffffffffffffff1673ffffffffffffffffffffffffffffffffffffffff16815260200190815260200160002060009054906101000a900460ff166002811115610a2457610a2361155e565b5b149050919050565b60026020528060005260406000206000915054906101000a900460ff1681565b60606000600280811115610a6357610a6261155e565b5b600260008573ffffffffffffffffffffffffffffffffffffffff1673ffffffffffffffffffffffffffffffffffffffff16815260200190815260200160002060009054906101000a900460ff166002811115610ac257610ac161155e565b5b14610b02576040517f08c379a0000000000000000000000000000000000000000000000000000000008152600401610af990611a97565b60405180910390fd5b6000600160008573ffffffffffffffffffffffffffffffffffffffff1673ffffffffffffffffffffffffffffffffffffffff1681526020019081526020016000209050806000018160010154818054610b5a9061170e565b80601f0160208091040260200160405190810160405280929190818152602001828054610b869061170e565b8015610bd35780601f10610ba857610100808354040283529160200191610bd3565b820191906000526020600020905b815481529060010190602001808311610bb657829003601f168201915b505050505091509250925050915091565b60038181548110610bf457600080fd5b906000526020600020016000915054906101000a900473ffffffffffffffffffffffffffffffffffffffff1681565b60006002811115610c3757610c3661155e565b5b600260003373ffffffffffffffffffffffffffffffffffffffff1673ffffffffffffffffffffffffffffffffffffffff16815260200190815260200160002060009054906101000a900460ff166002811115610c9657610c9561155e565b5b14610cd6576040517f08c379a0000000000000000000000000000000000000000000000000000000008152600401610ccd9061178b565b60405180910390fd5b604051806040016040528082815260200142815250600160003373ffffffffffffffffffffffffffffffffffffffff1673ffffffffffffffffffffffffffffffffffffffff1681526020019081526020016000206000820151816000019081610d3f9190611957565b506020820151816001015590505060028060003373ffffffffffffffffffffffffffffffffffffffff1673ffffffffffffffffffffffffffffffffffffffff16815260200190815260200160002060006101000a81548160ff02191690836002811115610daf57610dae61155e565b5b02179055506004339080600181540180825580915050600190039060005260206000200160009091909190916101000a81548173ffffffffffffffffffffffffffffffffffffffff021916908373ffffffffffffffffffffffffffffffffffffffff1602179055503373ffffffffffffffffffffffffffffffffffffffff167f1095d5bb47535aabc9770acbcd3f5f182a26902a02d9eaa8b8c1450e7141207882604051610e5d9190611a29565b60405180910390a250565b6000602052806000526040600020600091509050806000018054610e8b9061170e565b80601f0160208091040260200160405190810160405280929190818152602001828054610eb79061170e565b8015610f045780601f10610ed957610100808354040283529160200191610f04565b820191906000526020600020905b815481529060010190602001808311610ee757829003601f168201915b5050505050908060010160009054906101000a900460ff16908060020154905083565b6000600380549050905090565b60048181548110610f4457600080fd5b906000526020600020016000915054906101000a900473ffffffffffffffffffffffffffffffffffffffff1681565b60016002811115610f8757610f8661155e565b5b600260008373ffffffffffffffffffffffffffffffffffffffff1673ffffffffffffffffffffffffffffffffffffffff16815260200190815260200160002060009054906101000a900460ff166002811115610fe657610fe561155e565b5b14611026576040517f08c379a000000000000000000000000000000000000000000000000000000000815260040161101d906116bf565b60405180910390fd5b60008060008373ffffffffffffffffffffffffffffffffffffffff1673ffffffffffffffffffffffffffffffffffffffff16815260200190815260200160002060020154036110aa576040517f08c379a00000000000000000000000000000000000000000000000000000000081526004016110a190611b03565b60405180910390fd5b6000808273ffffffffffffffffffffffffffffffffffffffff1673ffffffffffffffffffffffffffffffffffffffff16815260200190815260200160002060010160009054906101000a900460ff1615611139576040517f08c379a000000000000000000000000000000000000000000000000000000000815260040161113090611b6f565b60405180910390fd5b60016000808373ffffffffffffffffffffffffffffffffffffffff1673ffffffffffffffffffffffffffffffffffffffff16815260200190815260200160002060010160006101000a81548160ff0219169083151502179055508073ffffffffffffffffffffffffffffffffffffffff167f10f3df5ea24936f30e6fa9dcf776499b56fe259d4e59b9079c5db64ceb7154e160405160405180910390a250565b6000604051905090565b600080fd5b600080fd5b600073ffffffffffffffffffffffffffffffffffffffff82169050919050565b6000611218826111ed565b9050919050565b6112288161120d565b811461123357600080fd5b50565b6000813590506112458161121f565b92915050565b600060208284031215611261576112606111e3565b5b600061126f84828501611236565b91505092915050565b60008115159050919050565b61128d81611278565b82525050565b60006020820190506112a86000830184611284565b92915050565b600081519050919050565b600082825260208201905092915050565b60005b838110156112e85780820151818401526020810190506112cd565b60008484015250505050565b6000601f19601f8301169050919050565b6000611310826112ae565b61131a81856112b9565b935061132a8185602086016112ca565b611333816112f4565b840191505092915050565b6000819050919050565b6113518161133e565b82525050565b600060608201905081810360008301526113718186611305565b90506113806020830185611284565b61138d6040830184611348565b949350505050565b600080fd5b600080fd5b7f4e487b7100000000000000000000000000000000000000000000000000000000600052604160045260246000fd5b6113d7826112f4565b810181811067ffffffffffffffff821117156113f6576113f561139f565b5b80604052505050565b60006114096111d9565b905061141582826113ce565b919050565b600067ffffffffffffffff8211156114355761143461139f565b5b61143e826112f4565b9050602081019050919050565b82818337600083830152505050565b600061146d6114688461141a565b6113ff565b9050828152602081018484840111156114895761148861139a565b5b61149484828561144b565b509392505050565b600082601f8301126114b1576114b0611395565b5b81356114c184826020860161145a565b91505092915050565b6000602082840312156114e0576114df6111e3565b5b600082013567ffffffffffffffff8111156114fe576114fd6111e8565b5b61150a8482850161149c565b91505092915050565b60006020820190506115286000830184611348565b92915050565b600060408201905081810360008301526115488185611305565b90506115576020830184611348565b9392505050565b7f4e487b7100000000000000000000000000000000000000000000000000000000600052602160045260246000fd5b6003811061159e5761159d61155e565b5b50565b60008190506115af8261158d565b919050565b60006115bf826115a1565b9050919050565b6115cf816115b4565b82525050565b60006020820190506115ea60008301846115c6565b92915050565b6115f98161133e565b811461160457600080fd5b50565b600081359050611616816115f0565b92915050565b600060208284031215611632576116316111e3565b5b600061164084828501611607565b91505092915050565b6116528161120d565b82525050565b600060208201905061166d6000830184611649565b92915050565b7f4e6f74207265676973746572656420617320616e206172746973616e00000000600082015250565b60006116a9601c836112b9565b91506116b482611673565b602082019050919050565b600060208201905081810360008301526116d88161169c565b9050919050565b7f4e487b7100000000000000000000000000000000000000000000000000000000600052602260045260246000fd5b6000600282049050600182168061172657607f821691505b602082108103611739576117386116df565b5b50919050565b7f5573657220616c72656164792072656769737465726564000000000000000000600082015250565b60006117756017836112b9565b91506117808261173f565b602082019050919050565b600060208201905081810360008301526117a481611768565b9050919050565b60008190508160005260206000209050919050565b60006020601f8301049050919050565b600082821b905092915050565b60006008830261180d7fffffffffffffffffffffffffffffffffffffffffffffffffffffffffffffffff826117d0565b61181786836117d0565b95508019841693508086168417925050509392505050565b6000819050919050565b600061185461184f61184a8461133e565b61182f565b61133e565b9050919050565b6000819050919050565b61186e83611839565b61188261187a8261185b565b8484546117dd565b825550505050565b600090565b61189761188a565b6118a2818484611865565b505050565b5b818110156118c6576118bb60008261188f565b6001810190506118a8565b5050565b601f82111561190b576118dc816117ab565b6118e5846117c0565b810160208510156118f4578190505b611908611900856117c0565b8301826118a7565b50505b505050565b600082821c905092915050565b600061192e60001984600802611910565b1980831691505092915050565b6000611947838361191d565b9150826002028217905092915050565b611960826112ae565b67ffffffffffffffff8111156119795761197861139f565b5b611983825461170e565b61198e8282856118ca565b600060209050601f8311600181146119c157600084156119af578287015190505b6119b9858261193b565b865550611a21565b601f1984166119cf866117ab565b60005b828110156119f7578489015182556001820191506020850194506020810190506119d2565b86831015611a145784890151611a10601f89168261191d565b8355505b6001600288020188555050505b505050505050565b60006020820190508181036000830152611a438184611305565b905092915050565b7f4e6f742072656769737465726564206173206120636c69656e74000000000000600082015250565b6000611a81601a836112b9565b9150611a8c82611a4b565b602082019050919050565b60006020820190508181036000830152611ab081611a74565b9050919050565b7f4172746973616e206e6f74207265676973746572656400000000000000000000600082015250565b6000611aed6016836112b9565b9150611af882611ab7565b602082019050919050565b60006020820190508181036000830152611b1c81611ae0565b9050919050565b7f4172746973616e20616c72656164792076657269666965640000000000000000600082015250565b6000611b596018836112b9565b9150611b6482611b23565b602082019050919050565b60006020820190508181036000830152611b8881611b4c565b905091905056fea26469706673582212203ad240ea254c29d842c0c51fa9dbacd512380ec4fe5c41045d558f84957b2abd64736f6c63430008140033",
  "linkReferences": {},
  "deployedLinkReferences": {}
}