{
  "_format": "hh-sol-artifact-1",
  "contractName": "Registry",
  "sourceName": "contracts/Registry.sol",
  "abi": [
    {
      "anonymous": false,
      "inputs": [
        {
          "indexed": true,
          "internalType": "address",
          "name": "artisanAddress",
          "type": "address"
        },
        {
          "indexed": false,
          "internalType": "string",
          "name": "ipfsHash",
          "type": "string"
        }
      ],
      "name": "ArtisanRegistered",
      "type": "event"
    },
    {
      "anonymous": false,
      "inputs": [
        {
          "indexed": true,
          "internalType": "address",
          "name": "artisanAddress",
          "type": "address"
        }
      ],
      "name": "ArtisanVerified",
      "type": "event"
    },
    {
      "anonymous": false,
      "inputs": [
        {
          "indexed": true,
          "internalType": "address",
          "name": "clientAddress",
          "type": "address"
        },
        {
          "indexed": false,
          "internalType": "string",
          "name": "ipfsHash",
          "type": "string"
        }
      ],
      "name": "ClientRegistered",
      "type": "event"
    },
    {
      "inputs": [
        {
          "internalType": "uint256",
          "name": "",
          "type": "uint256"
        }
      ],
      "name": "artisanAddresses",
      "outputs": [
        {
          "internalType": "address",
          "name": "",
          "type": "address"
        }
      ],
      "stateMutability": "view",
      "type": "function"
    },
    {
      "inputs": [
        {
          "internalType": "address",
          "name": "",
          "type": "address"
        }
      ],
      "name": "artisans",
      "outputs": [
        {
          "internalType": "string",
          "name": "ipfsHash",
          "type": "string"
        },
        {
          "internalType": "bool",
          "name": "isVerified",
          "type": "bool"
        },
        {
          "internalType": "uint256",
          "name": "registrationDate",
          "type": "uint256"
        }
      ],
      "stateMutability": "view",
      "type": "function"
    },
    {
      "inputs": [
        {
          "internalType": "uint256",
          "name": "",
          "type": "uint256"
        }
      ],
      "name": "clientAddresses",
      "outputs": [
        {
          "internalType": "address",
          "name": "",
          "type": "address"
        }
      ],
      "stateMutability": "view",
      "type": "function"
    },
    {
      "inputs": [
        {
          "internalType": "address",
          "name": "",
          "type": "address"
        }
      ],
      "name": "clients",
      "outputs": [
        {
          "internalType": "string",
          "name": "ipfsHash",
          "type": "string"
        },
        {
          "internalType": "uint256",
          "name": "registrationDate",
          "type": "uint256"
        }
      ],
      "stateMutability": "view",
      "type": "function"
    },
    {
      "inputs": [],
      "name": "getArtisanCount",
      "outputs": [
        {
          "internalType": "uint256",
          "name": "",
          "type": "uint256"
        }
      ],
      "stateMutability": "view",
      "type": "function"
    },
    {
      "inputs": [
        {
          "internalType": "address",
          "name": "_artisanAddress",
          "type": "address"
        }
      ],
      "name": "getArtisanDetails",
      "outputs": [
        {
          "internalType": "string",
          "name": "ipfsHash",
          "type": "string"
        },
        {
          "internalType": "bool",
          "name": "isVerified",
          "type": "bool"
        },
        {
          "internalType": "uint256",
          "name": "registrationDate",
          "type": "uint256"
        }
      ],
      "stateMutability": "view",
      "type": "function"
    },
    {
      "inputs": [],
      "name": "getClientCount",
      "outputs": [
        {
          "internalType": "uint256",
          "name": "",
          "type": "uint256"
        }
      ],
      "stateMutability": "view",
      "type": "function"
    },
    {
      "inputs": [
        {
          "internalType": "address",
          "name": "_clientAddress",
          "type": "address"
        }
      ],
      "name": "getClientDetails",
      "outputs": [
        {
          "internalType": "string",
          "name": "ipfsHash",
          "type": "string"
        },
        {
          "internalType": "uint256",
          "name": "registrationDate",
          "type": "uint256"
        }
      ],
      "stateMutability": "view",
      "type": "function"
    },
    {
      "inputs": [
        {
          "internalType": "address",
          "name": "_artisanAddress",
          "type": "address"
        }
      ],
      "name": "isArtisan",
      "outputs": [
        {
          "internalType": "bool",
          "name": "",
          "type": "bool"
        }
      ],
      "stateMutability": "view",
      "type": "function"
    },
    {
      "inputs": [
        {
          "internalType": "address",
          "name": "_artisanAddress",
          "type": "address"
        }
      ],
      "name": "isArtisanVerified",
      "outputs": [
        {
          "internalType": "bool",
          "name": "",
          "type": "bool"
        }
      ],
      "stateMutability": "view",
      "type": "function"
    },
    {
      "inputs": [
        {
          "internalType": "address",
          "name": "_clientAddress",
          "type": "address"
        }
      ],
      "name": "isClient",
      "outputs": [
        {
          "internalType": "bool",
          "name": "",
          "type": "bool"
        }
      ],
      "stateMutability": "view",
      "type": "function"
    },
    {
      "inputs": [
        {
          "internalType": "string",
          "name": "_ipfsHash",
          "type": "string"
        }
      ],
      "name": "registerAsArtisan",
      "outputs": [],
      "stateMutability": "nonpayable",
      "type": "function"
    },
    {
      "inputs": [
        {
          "internalType": "string",
          "name": "_ipfsHash",
          "type": "string"
        }
      ],
      "name": "registerAsClient",
      "outputs": [],
      "stateMutability": "nonpayable",
      "type": "function"
    },
    {
      "inputs": [
        {
          "internalType": "address",
          "name": "",
          "type": "address"
        }
      ],
      "name": "userTypes",
      "outputs": [
        {
          "internalType": "enum Registry.UserType",
          "name": "",
          "type": "uint8"
        }
      ],
      "stateMutability": "view",
      "type": "function"
    }
  ],
  "bytecode": "0x608060405234801561001057600080fd5b50610ea5806100206000396000f3fe608060405234801561001057600080fd5b50600436106100ea5760003560e01c806387cd273c1161008c578063b98389b111610066578063b98389b114610215578063cf259d6014610228578063d3e583d91461023b578063f1987e111461024357600080fd5b806387cd273c146101a75780638bf3bbed146101d75780639b6ea4db146101ea57600080fd5b80632494bbb5116100c85780632494bbb51461014c5780635a81018a1461016157806361eed2a91461017357806384b7964f1461019457600080fd5b8063070ef70f146100ef57806307c33026146101175780631d601a211461012a575b600080fd5b6101026100fd366004610b01565b610256565b60405190151581526020015b60405180910390f35b610102610125366004610b01565b6102d1565b61013d610138366004610b01565b61030c565b60405161010e93929190610b77565b61015f61015a366004610bb2565b610423565b005b6004545b60405190815260200161010e565b610186610181366004610b01565b61058c565b60405161010e929190610c63565b6101026101a2366004610b01565b610630565b6101ca6101b5366004610b01565b60026020526000908152604090205460ff1681565b60405161010e9190610c9b565b6101866101e5366004610b01565b610639565b6101fd6101f8366004610cc3565b610774565b6040516001600160a01b03909116815260200161010e565b61015f610223366004610bb2565b61079e565b61013d610236366004610b01565b6108d5565b600354610165565b6101fd610251366004610cc3565b610983565b600060016001600160a01b03831660009081526002602081905260409091205460ff169081111561028957610289610c85565b146102af5760405162461bcd60e51b81526004016102a690610cdc565b60405180910390fd5b506001600160a01b031660009081526020819052604090206001015460ff1690565b600060015b6001600160a01b03831660009081526002602081905260409091205460ff169081111561030557610305610c85565b1492915050565b606060008060016001600160a01b03851660009081526002602081905260409091205460ff169081111561034257610342610c85565b1461035f5760405162461bcd60e51b81526004016102a690610cdc565b6001600160a01b0384166000908152602081905260409020600181015460028201548254839260ff169190839061039590610d13565b80601f01602080910402602001604051908101604052809291908181526020018280546103c190610d13565b801561040e5780601f106103e35761010080835404028352916020019161040e565b820191906000526020600020905b8154815290600101906020018083116103f157829003601f168201915b50505050509250935093509350509193909250565b33600090815260026020819052604082205460ff169081111561044857610448610c85565b1461048f5760405162461bcd60e51b8152602060048201526017602482015276155cd95c88185b1c9958591e481c9959da5cdd195c9959604a1b60448201526064016102a6565b6040805160608101825282815260006020808301829052428385015233825281905291909120815181906104c39082610d9c565b506020828101516001838101805492151560ff19938416179055604094850151600294850155336000818152949093529383208054909116841790556003805493840181559091527fc2575a0e9e593c00f959f8c92f12db2869c3395a3b0502d05e2516446f71f85b90910180546001600160a01b0319168217905561054890610993565b336001600160a01b03167fcbdaa7c4fc307de372ed1c536f4901f771ac7e14fe243d6fbd7b4826a439f74c826040516105819190610e5c565b60405180910390a250565b6001602052600090815260409020805481906105a790610d13565b80601f01602080910402602001604051908101604052809291908181526020018280546105d390610d13565b80156106205780601f106105f557610100808354040283529160200191610620565b820191906000526020600020905b81548152906001019060200180831161060357829003601f168201915b5050505050908060010154905082565b600060026102d6565b6060600060026001600160a01b03841660009081526002602081905260409091205460ff169081111561066e5761066e610c85565b146106bb5760405162461bcd60e51b815260206004820152601a60248201527f4e6f742072656769737465726564206173206120636c69656e7400000000000060448201526064016102a6565b6001600160a01b038316600090815260016020819052604090912090810154815482919082906106ea90610d13565b80601f016020809104026020016040519081016040528092919081815260200182805461071690610d13565b80156107635780601f1061073857610100808354040283529160200191610763565b820191906000526020600020905b81548152906001019060200180831161074657829003601f168201915b505050505091509250925050915091565b6003818154811061078457600080fd5b6000918252602090912001546001600160a01b0316905081565b33600090815260026020819052604082205460ff16908111156107c3576107c3610c85565b1461080a5760405162461bcd60e51b8152602060048201526017602482015276155cd95c88185b1c9958591e481c9959da5cdd195c9959604a1b60448201526064016102a6565b604080518082018252828152426020808301919091523360009081526001909152919091208151819061083d9082610d9c565b506020918201516001918201553360008181526002938490526040808220805460ff191690951790945560048054938401815590527f8a35acfbc15ff81a39ae7d344fd709f28e8600b4aa8c65c6b64bfe7fe36bd19b90910180546001600160a01b0319168217905590517f1095d5bb47535aabc9770acbcd3f5f182a26902a02d9eaa8b8c1450e7141207890610581908490610e5c565b6000602081905290815260409020805481906108f090610d13565b80601f016020809104026020016040519081016040528092919081815260200182805461091c90610d13565b80156109695780601f1061093e57610100808354040283529160200191610969565b820191906000526020600020905b81548152906001019060200180831161094c57829003601f168201915b505050506001830154600290930154919260ff1691905083565b6004818154811061078457600080fd5b60016001600160a01b03821660009081526002602081905260409091205460ff16908111156109c4576109c4610c85565b146109e15760405162461bcd60e51b81526004016102a690610cdc565b6001600160a01b0381166000908152602081905260408120600201549003610a445760405162461bcd60e51b8152602060048201526016602482015275105c9d1a5cd85b881b9bdd081c9959da5cdd195c995960521b60448201526064016102a6565b6001600160a01b03811660009081526020819052604090206001015460ff1615610ab05760405162461bcd60e51b815260206004820152601860248201527f4172746973616e20616c7265616479207665726966696564000000000000000060448201526064016102a6565b6001600160a01b0381166000818152602081905260408082206001908101805460ff19169091179055517f10f3df5ea24936f30e6fa9dcf776499b56fe259d4e59b9079c5db64ceb7154e19190a250565b600060208284031215610b1357600080fd5b81356001600160a01b0381168114610b2a57600080fd5b9392505050565b6000815180845260005b81811015610b5757602081850181015186830182015201610b3b565b506000602082860101526020601f19601f83011685010191505092915050565b606081526000610b8a6060830186610b31565b93151560208301525060400152919050565b634e487b7160e01b600052604160045260246000fd5b600060208284031215610bc457600080fd5b813567ffffffffffffffff80821115610bdc57600080fd5b818401915084601f830112610bf057600080fd5b813581811115610c0257610c02610b9c565b604051601f8201601f19908116603f01168101908382118183101715610c2a57610c2a610b9c565b81604052828152876020848701011115610c4357600080fd5b826020860160208301376000928101602001929092525095945050505050565b604081526000610c766040830185610b31565b90508260208301529392505050565b634e487b7160e01b600052602160045260246000fd5b6020810160038310610cbd57634e487b7160e01b600052602160045260246000fd5b91905290565b600060208284031215610cd557600080fd5b5035919050565b6020808252601c908201527f4e6f74207265676973746572656420617320616e206172746973616e00000000604082015260600190565b600181811c90821680610d2757607f821691505b602082108103610d4757634e487b7160e01b600052602260045260246000fd5b50919050565b601f821115610d9757600081815260208120601f850160051c81016020861015610d745750805b601f850160051c820191505b81811015610d9357828155600101610d80565b5050505b505050565b815167ffffffffffffffff811115610db657610db6610b9c565b610dca81610dc48454610d13565b84610d4d565b602080601f831160018114610dff5760008415610de75750858301515b600019600386901b1c1916600185901b178555610d93565b600085815260208120601f198616915b82811015610e2e57888601518255948401946001909101908401610e0f565b5085821015610e4c5787850151600019600388901b60f8161c191681555b5050505050600190811b01905550565b602081526000610b2a6020830184610b3156fea26469706673582212207da7f1a0bbb1472057456668869cfeb06240c842e94f63ffbd5870dae5b0543f64736f6c63430008140033",
  "linkReferences": {},
  "deployedLinkReferences": {}
}