{
  "_format": "hh-sol-artifact-1",
  "contractName": "Token",
  "sourceName": "contracts/Token.sol",
  "abi": [
    {
      "inputs": [],
      "stateMutability": "nonpayable",
      "type": "constructor"
    },
    {
      "inputs": [
        {
          "internalType": "address",
          "name": "spender",
          "type": "address"
        },
        {
          "internalType": "uint256",
          "name": "allowance",
          "type": "uint256"
        },
        {
          "internalType": "uint256",
          "name": "needed",
          "type": "uint256"
        }
      ],
      "name": "ERC20InsufficientAllowance",
      "type": "error"
    },
    {
      "inputs": [
        {
          "internalType": "address",
          "name": "sender",
          "type": "address"
        },
        {
          "internalType": "uint256",
          "name": "balance",
          "type": "uint256"
        },
        {
          "internalType": "uint256",
          "name": "needed",
          "type": "uint256"
        }
      ],
      "name": "ERC20InsufficientBalance",
      "type": "error"
    },
    {
      "inputs": [
        {
          "internalType": "address",
          "name": "approver",
          "type": "address"
        }
      ],
      "name": "ERC20InvalidApprover",
      "type": "error"
    },
    {
      "inputs": [
        {
          "internalType": "address",
          "name": "receiver",
          "type": "address"
        }
      ],
      "name": "ERC20InvalidReceiver",
      "type": "error"
    },
    {
      "inputs": [
        {
          "internalType": "address",
          "name": "sender",
          "type": "address"
        }
      ],
      "name": "ERC20InvalidSender",
      "type": "error"
    },
    {
      "inputs": [
        {
          "internalType": "address",
          "name": "spender",
          "type": "address"
        }
      ],
      "name": "ERC20InvalidSpender",
      "type": "error"
    },
    {
      "inputs": [
        {
          "internalType": "address",
          "name": "owner",
          "type": "address"
        }
      ],
      "name": "OwnableInvalidOwner",
      "type": "error"
    },
    {
      "inputs": [
        {
          "internalType": "address",
          "name": "account",
          "type": "address"
        }
      ],
      "name": "OwnableUnauthorizedAccount",
      "type": "error"
    },
    {
      "anonymous": false,
      "inputs": [
        {
          "indexed": true,
          "internalType": "address",
          "name": "owner",
          "type": "address"
        },
        {
          "indexed": true,
          "internalType": "address",
          "name": "spender",
          "type": "address"
        },
        {
          "indexed": false,
          "internalType": "uint256",
          "name": "value",
          "type": "uint256"
        }
      ],
      "name": "Approval",
      "type": "event"
    },
    {
      "anonymous": false,
      "inputs": [
        {
          "indexed": true,
          "internalType": "address",
          "name": "previousOwner",
          "type": "address"
        },
        {
          "indexed": true,
          "internalType": "address",
          "name": "newOwner",
          "type": "address"
        }
      ],
      "name": "OwnershipTransferred",
      "type": "event"
    },
    {
      "anonymous": false,
      "inputs": [
        {
          "indexed": true,
          "internalType": "address",
          "name": "from",
          "type": "address"
        },
        {
          "indexed": true,
          "internalType": "address",
          "name": "to",
          "type": "address"
        },
        {
          "indexed": false,
          "internalType": "uint256",
          "name": "value",
          "type": "uint256"
        }
      ],
      "name": "Transfer",
      "type": "event"
    },
    {
      "inputs": [],
      "name": "CLAIM_AMOUNT",
      "outputs": [
        {
          "internalType": "uint256",
          "name": "",
          "type": "uint256"
        }
      ],
      "stateMutability": "view",
      "type": "function"
    },
    {
      "inputs": [
        {
          "internalType": "address",
          "name": "owner",
          "type": "address"
        },
        {
          "internalType": "address",
          "name": "spender",
          "type": "address"
        }
      ],
      "name": "allowance",
      "outputs": [
        {
          "internalType": "uint256",
          "name": "",
          "type": "uint256"
        }
      ],
      "stateMutability": "view",
      "type": "function"
    },
    {
      "inputs": [
        {
          "internalType": "address",
          "name": "spender",
          "type": "address"
        },
        {
          "internalType": "uint256",
          "name": "value",
          "type": "uint256"
        }
      ],
      "name": "approve",
      "outputs": [
        {
          "internalType": "bool",
          "name": "",
          "type": "bool"
        }
      ],
      "stateMutability": "nonpayable",
      "type": "function"
    },
    {
      "inputs": [
        {
          "internalType": "address",
          "name": "account",
          "type": "address"
        }
      ],
      "name": "balanceOf",
      "outputs": [
        {
          "internalType": "uint256",
          "name": "",
          "type": "uint256"
        }
      ],
      "stateMutability": "view",
      "type": "function"
    },
    {
      "inputs": [
        {
          "internalType": "uint256",
          "name": "amount",
          "type": "uint256"
        }
      ],
      "name": "burn",
      "outputs": [],
      "stateMutability": "nonpayable",
      "type": "function"
    },
    {
      "inputs": [],
      "name": "claim",
      "outputs": [],
      "stateMutability": "nonpayable",
      "type": "function"
    },
    {
      "inputs": [],
      "name": "decimals",
      "outputs": [
        {
          "internalType": "uint8",
          "name": "",
          "type": "uint8"
        }
      ],
      "stateMutability": "pure",
      "type": "function"
    },
    {
      "inputs": [
        {
          "internalType": "address",
          "name": "",
          "type": "address"
        }
      ],
      "name": "hasClaimed",
      "outputs": [
        {
          "internalType": "bool",
          "name": "",
          "type": "bool"
        }
      ],
      "stateMutability": "view",
      "type": "function"
    },
    {
      "inputs": [
        {
          "internalType": "address",
          "name": "to",
          "type": "address"
        },
        {
          "internalType": "uint256",
          "name": "amount",
          "type": "uint256"
        }
      ],
      "name": "mint",
      "outputs": [],
      "stateMutability": "nonpayable",
      "type": "function"
    },
    {
      "inputs": [],
      "name": "name",
      "outputs": [
        {
          "internalType": "string",
          "name": "",
          "type": "string"
        }
      ],
      "stateMutability": "view",
      "type": "function"
    },
    {
      "inputs": [],
      "name": "owner",
      "outputs": [
        {
          "internalType": "address",
          "name": "",
          "type": "address"
        }
      ],
      "stateMutability": "view",
      "type": "function"
    },
    {
      "inputs": [],
      "name": "renounceOwnership",
      "outputs": [],
      "stateMutability": "nonpayable",
      "type": "function"
    },
    {
      "inputs": [],
      "name": "symbol",
      "outputs": [
        {
          "internalType": "string",
          "name": "",
          "type": "string"
        }
      ],
      "stateMutability": "view",
      "type": "function"
    },
    {
      "inputs": [],
      "name": "totalSupply",
      "outputs": [
        {
          "internalType": "uint256",
          "name": "",
          "type": "uint256"
        }
      ],
      "stateMutability": "view",
      "type": "function"
    },
    {
      "inputs": [
        {
          "internalType": "address",
          "name": "to",
          "type": "address"
        },
        {
          "internalType": "uint256",
          "name": "value",
          "type": "uint256"
        }
      ],
      "name": "transfer",
      "outputs": [
        {
          "internalType": "bool",
          "name": "",
          "type": "bool"
        }
      ],
      "stateMutability": "nonpayable",
      "type": "function"
    },
    {
      "inputs": [
        {
          "internalType": "address",
          "name": "from",
          "type": "address"
        },
        {
          "internalType": "address",
          "name": "to",
          "type": "address"
        },
        {
          "internalType": "uint256",
          "name": "value",
          "type": "uint256"
        }
      ],
      "name": "transferFrom",
      "outputs": [
        {
          "internalType": "bool",
          "name": "",
          "type": "bool"
        }
      ],
      "stateMutability": "nonpayable",
      "type": "function"
    },
    {
      "inputs": [
        {
          "internalType": "address",
          "name": "newOwner",
          "type": "address"
        }
      ],
      "name": "transferOwnership",
      "outputs": [],
      "stateMutability": "nonpayable",
      "type": "function"
    }
  ],
  "bytecode": "0x60c0604052600b60809081526a555344205465746865727360a81b60a0526006906200002c9082620002f5565b506040805180820190915260048152631554d11560e21b6020820152600790620000579082620002f5565b506008805460ff191660061790553480156200007257600080fd5b503360068054620000839062000266565b80601f0160208091040260200160405190810160405280929190818152602001828054620000b19062000266565b8015620001025780601f10620000d65761010080835404028352916020019162000102565b820191906000526020600020905b815481529060010190602001808311620000e457829003601f168201915b505050505060078054620001169062000266565b80601f0160208091040260200160405190810160405280929190818152602001828054620001449062000266565b8015620001955780601f10620001695761010080835404028352916020019162000195565b820191906000526020600020905b8154815290600101906020018083116200017757829003601f168201915b50505050508160039081620001ab9190620002f5565b506004620001ba8282620002f5565b5050506001600160a01b038116620001ec57604051631e4fbdf760e01b81526000600482015260240160405180910390fd5b620001f781620001fe565b50620003c1565b600580546001600160a01b038381166001600160a01b0319831681179093556040519116919082907f8be0079c531659141344cd1fd0a4f28419497f9722a3daafe3b4186f6b6457e090600090a35050565b634e487b7160e01b600052604160045260246000fd5b600181811c908216806200027b57607f821691505b6020821081036200029c57634e487b7160e01b600052602260045260246000fd5b50919050565b601f821115620002f057600081815260208120601f850160051c81016020861015620002cb5750805b601f850160051c820191505b81811015620002ec57828155600101620002d7565b5050505b505050565b81516001600160401b0381111562000311576200031162000250565b620003298162000322845462000266565b84620002a2565b602080601f831160018114620003615760008415620003485750858301515b600019600386901b1c1916600185901b178555620002ec565b600085815260208120601f198616915b82811015620003925788860151825594840194600190910190840162000371565b5085821015620003b15787850151600019600388901b60f8161c191681555b5050505050600190811b01905550565b610a1d80620003d16000396000f3fe608060405234801561001057600080fd5b506004361061010b5760003560e01c80634e71d92d116100a25780638da5cb5b116100715780638da5cb5b1461021457806395d89b411461022f578063a9059cbb14610237578063dd62ed3e1461024a578063f2fde38b1461028357600080fd5b80634e71d92d146101b857806370a08231146101c0578063715018a6146101e957806373b2e80e146101f157600080fd5b8063270ef385116100de578063270ef38514610176578063313ce5671461018157806340c10f191461019057806342966c68146101a557600080fd5b806306fdde0314610110578063095ea7b31461012e57806318160ddd1461015157806323b872dd14610163575b600080fd5b610118610296565b604051610125919061084e565b60405180910390f35b61014161013c3660046108b8565b610328565b6040519015158152602001610125565b6002545b604051908152602001610125565b6101416101713660046108e2565b610342565b610155633b9aca0081565b60405160068152602001610125565b6101a361019e3660046108b8565b610366565b005b6101a36101b336600461091e565b61037c565b6101a3610389565b6101556101ce366004610937565b6001600160a01b031660009081526020819052604090205490565b6101a361040a565b6101416101ff366004610937565b60096020526000908152604090205460ff1681565b6005546040516001600160a01b039091168152602001610125565b61011861041c565b6101416102453660046108b8565b61042b565b610155610258366004610959565b6001600160a01b03918216600090815260016020908152604080832093909416825291909152205490565b6101a3610291366004610937565b610439565b6060600380546102a59061098c565b80601f01602080910402602001604051908101604052809291908181526020018280546102d19061098c565b801561031e5780601f106102f35761010080835404028352916020019161031e565b820191906000526020600020905b81548152906001019060200180831161030157829003601f168201915b5050505050905090565b600033610336818585610474565b60019150505b92915050565b600033610350858285610486565b61035b858585610505565b506001949350505050565b61036e610564565b6103788282610591565b5050565b61038633826105c7565b50565b3360009081526009602052604090205460ff16156103e05760405162461bcd60e51b815260206004820152600f60248201526e105b1c9958591e4818db185a5b5959608a1b60448201526064015b60405180910390fd5b336000818152600960205260409020805460ff1916600117905561040890633b9aca00610591565b565b610412610564565b61040860006105fd565b6060600480546102a59061098c565b600033610336818585610505565b610441610564565b6001600160a01b03811661046b57604051631e4fbdf760e01b8152600060048201526024016103d7565b610386816105fd565b610481838383600161064f565b505050565b6001600160a01b038381166000908152600160209081526040808320938616835292905220546000198110156104ff57818110156104f057604051637dc7a0d960e11b81526001600160a01b038416600482015260248101829052604481018390526064016103d7565b6104ff8484848403600061064f565b50505050565b6001600160a01b03831661052f57604051634b637e8f60e11b8152600060048201526024016103d7565b6001600160a01b0382166105595760405163ec442f0560e01b8152600060048201526024016103d7565b610481838383610724565b6005546001600160a01b031633146104085760405163118cdaa760e01b81523360048201526024016103d7565b6001600160a01b0382166105bb5760405163ec442f0560e01b8152600060048201526024016103d7565b61037860008383610724565b6001600160a01b0382166105f157604051634b637e8f60e11b8152600060048201526024016103d7565b61037882600083610724565b600580546001600160a01b038381166001600160a01b0319831681179093556040519116919082907f8be0079c531659141344cd1fd0a4f28419497f9722a3daafe3b4186f6b6457e090600090a35050565b6001600160a01b0384166106795760405163e602df0560e01b8152600060048201526024016103d7565b6001600160a01b0383166106a357604051634a1406b160e11b8152600060048201526024016103d7565b6001600160a01b03808516600090815260016020908152604080832093871683529290522082905580156104ff57826001600160a01b0316846001600160a01b03167f8c5be1e5ebec7d5bd14f71427d1e84f3dd0314c0f7b2291e5b200ac8c7c3b9258460405161071691815260200190565b60405180910390a350505050565b6001600160a01b03831661074f57806002600082825461074491906109c6565b909155506107c19050565b6001600160a01b038316600090815260208190526040902054818110156107a25760405163391434e360e21b81526001600160a01b038516600482015260248101829052604481018390526064016103d7565b6001600160a01b03841660009081526020819052604090209082900390555b6001600160a01b0382166107dd576002805482900390556107fc565b6001600160a01b03821660009081526020819052604090208054820190555b816001600160a01b0316836001600160a01b03167fddf252ad1be2c89b69c2b068fc378daa952ba7f163c4a11628f55a4df523b3ef8360405161084191815260200190565b60405180910390a3505050565b600060208083528351808285015260005b8181101561087b5785810183015185820160400152820161085f565b506000604082860101526040601f19601f8301168501019250505092915050565b80356001600160a01b03811681146108b357600080fd5b919050565b600080604083850312156108cb57600080fd5b6108d48361089c565b946020939093013593505050565b6000806000606084860312156108f757600080fd5b6109008461089c565b925061090e6020850161089c565b9150604084013590509250925092565b60006020828403121561093057600080fd5b5035919050565b60006020828403121561094957600080fd5b6109528261089c565b9392505050565b6000806040838503121561096c57600080fd5b6109758361089c565b91506109836020840161089c565b90509250929050565b600181811c908216806109a057607f821691505b6020821081036109c057634e487b7160e01b600052602260045260246000fd5b50919050565b8082018082111561033c57634e487b7160e01b600052601160045260246000fdfea26469706673582212209b2ca3bfc9a29bdaf0a560e600dc865262a100547e6298ad2afbf3264b88ef4164736f6c63430008140033",
  "linkReferences": {},
  "deployedLinkReferences": {}
}